{
  "contractName": "VRFD2",
  "abi": [
    {
      "inputs": [
        {
          "internalType": "uint64",
          "name": "subscriptionId",
          "type": "uint64"
        }
      ],
      "stateMutability": "nonpayable",
      "type": "constructor"
    },
    {
      "inputs": [
        {
          "internalType": "address",
          "name": "have",
          "type": "address"
        },
        {
          "internalType": "address",
          "name": "want",
          "type": "address"
        }
      ],
      "name": "OnlyCoordinatorCanFulfill",
      "type": "error"
    },
    {
      "anonymous": false,
      "inputs": [
        {
          "indexed": true,
          "internalType": "uint256",
          "name": "requestId",
          "type": "uint256"
        },
        {
          "indexed": true,
          "internalType": "uint256",
          "name": "result",
          "type": "uint256"
        }
      ],
      "name": "DiceLanded",
      "type": "event"
    },
    {
      "anonymous": false,
      "inputs": [
        {
          "indexed": true,
          "internalType": "uint256",
          "name": "requestId",
          "type": "uint256"
        },
        {
          "indexed": true,
          "internalType": "address",
          "name": "roller",
          "type": "address"
        }
      ],
      "name": "DiceRolled",
      "type": "event"
    },
    {
      "anonymous": false,
      "inputs": [
        {
          "indexed": true,
          "internalType": "address",
          "name": "sender",
          "type": "address"
        },
        {
          "indexed": true,
          "internalType": "uint256",
          "name": "value",
          "type": "uint256"
        }
      ],
      "name": "Received",
      "type": "event"
    },
    {
      "anonymous": false,
      "inputs": [
        {
          "indexed": false,
          "internalType": "uint256",
          "name": "id",
          "type": "uint256"
        },
        {
          "indexed": false,
          "internalType": "uint256",
          "name": "bet",
          "type": "uint256"
        },
        {
          "indexed": false,
          "internalType": "uint256",
          "name": "amount",
          "type": "uint256"
        },
        {
          "indexed": false,
          "internalType": "address",
          "name": "player",
          "type": "address"
        },
        {
          "indexed": false,
          "internalType": "uint256",
          "name": "winAmount",
          "type": "uint256"
        },
        {
          "indexed": false,
          "internalType": "uint256",
          "name": "randomResult",
          "type": "uint256"
        },
        {
          "indexed": false,
          "internalType": "uint256",
          "name": "time",
          "type": "uint256"
        }
      ],
      "name": "Result",
      "type": "event"
    },
    {
      "inputs": [],
      "name": "gameId",
      "outputs": [
        {
          "internalType": "uint256",
          "name": "",
          "type": "uint256"
        }
      ],
      "stateMutability": "view",
      "type": "function"
    },
    {
      "inputs": [
        {
          "internalType": "uint256",
          "name": "",
          "type": "uint256"
        }
      ],
      "name": "games",
      "outputs": [
        {
          "internalType": "uint256",
          "name": "id",
          "type": "uint256"
        },
        {
          "internalType": "uint256",
          "name": "bet",
          "type": "uint256"
        },
        {
          "internalType": "uint256",
          "name": "amount",
          "type": "uint256"
        },
        {
          "internalType": "address payable",
          "name": "player",
          "type": "address"
        }
      ],
      "stateMutability": "view",
      "type": "function"
    },
    {
      "inputs": [],
      "name": "lastGameId",
      "outputs": [
        {
          "internalType": "uint256",
          "name": "",
          "type": "uint256"
        }
      ],
      "stateMutability": "view",
      "type": "function"
    },
    {
      "inputs": [
        {
          "internalType": "uint256",
          "name": "requestId",
          "type": "uint256"
        },
        {
          "internalType": "uint256[]",
          "name": "randomWords",
          "type": "uint256[]"
        }
      ],
      "name": "rawFulfillRandomWords",
      "outputs": [],
      "stateMutability": "nonpayable",
      "type": "function"
    },
    {
      "stateMutability": "payable",
      "type": "receive"
    },
    {
      "inputs": [
        {
          "internalType": "address",
          "name": "roller",
          "type": "address"
        }
      ],
      "name": "rollDice",
      "outputs": [
        {
          "internalType": "uint256",
          "name": "requestId",
          "type": "uint256"
        }
      ],
      "stateMutability": "nonpayable",
      "type": "function"
    },
    {
      "inputs": [
        {
          "internalType": "address",
          "name": "player",
          "type": "address"
        },
        {
          "internalType": "uint256",
          "name": "bet",
          "type": "uint256"
        }
      ],
      "name": "game",
      "outputs": [
        {
          "internalType": "bool",
          "name": "",
          "type": "bool"
        }
      ],
      "stateMutability": "payable",
      "type": "function"
    },
    {
      "inputs": [
        {
          "internalType": "uint256",
          "name": "random",
          "type": "uint256"
        }
      ],
      "name": "verdict",
      "outputs": [],
      "stateMutability": "payable",
      "type": "function"
    }
  ],
  "bytecode": "0x60a0604052736168499c0cffcacd319c818142124b7a15e857ab600160006101000a81548173ffffffffffffffffffffffffffffffffffffffff021916908373ffffffffffffffffffffffffffffffffffffffff1602179055507fd89b2bf150e3b9e13446986e571fb9cab24b13cea0a43ea20a6049a85cc807cc60001b600255619c40600360006101000a81548163ffffffff021916908363ffffffff16021790555060038060046101000a81548161ffff021916908361ffff1602179055506001600360066101000a81548163ffffffff021916908363ffffffff160217905550348015620000ef57600080fd5b50604051620016e1380380620016e183398181016040528101906200011591906200028a565b600160009054906101000a900473ffffffffffffffffffffffffffffffffffffffff168073ffffffffffffffffffffffffffffffffffffffff1660808173ffffffffffffffffffffffffffffffffffffffff168152505050600160009054906101000a900473ffffffffffffffffffffffffffffffffffffffff166000806101000a81548173ffffffffffffffffffffffffffffffffffffffff021916908373ffffffffffffffffffffffffffffffffffffffff160217905550336003600a6101000a81548173ffffffffffffffffffffffffffffffffffffffff021916908373ffffffffffffffffffffffffffffffffffffffff16021790555080600060146101000a81548167ffffffffffffffff021916908367ffffffffffffffff16021790555050620002bc565b600080fd5b600067ffffffffffffffff82169050919050565b620002648162000245565b81146200027057600080fd5b50565b600081519050620002848162000259565b92915050565b600060208284031215620002a357620002a262000240565b5b6000620002b38482850162000273565b91505092915050565b608051611402620002df6000396000818161025e01526102b201526114026000f3fe6080604052600436106100745760003560e01c80633ee9d6481161004e5780633ee9d6481461015d578063d3dc1fdf14610188578063d7c81b55146101a4578063dd02d9e5146101cf576100bf565b8063117a5b90146100c45780631fe543e31461010457806322afd2af1461012d576100bf565b366100bf57343373ffffffffffffffffffffffffffffffffffffffff167f88a5966d370b9919b20f3e2c13ff65706f196a4e32cc2c12bf57088f8852587460405160405180910390a3005b600080fd5b3480156100d057600080fd5b506100eb60048036038101906100e69190610acf565b61020c565b6040516100fb9493929190610b4c565b60405180910390f35b34801561011057600080fd5b5061012b60048036038101906101269190610cea565b61025c565b005b61014760048036038101906101429190610d84565b61031c565b6040516101549190610ddf565b60405180910390f35b34801561016957600080fd5b5061017261053e565b60405161017f9190610dfa565b60405180910390f35b6101a2600480360381019061019d9190610acf565b610544565b005b3480156101b057600080fd5b506101b96107bf565b6040516101c69190610dfa565b60405180910390f35b3480156101db57600080fd5b506101f660048036038101906101f19190610e15565b6107c5565b6040516102039190610dfa565b60405180910390f35b60066020528060005260406000206000915090508060000154908060010154908060020154908060030160009054906101000a900473ffffffffffffffffffffffffffffffffffffffff16905084565b7f000000000000000000000000000000000000000000000000000000000000000073ffffffffffffffffffffffffffffffffffffffff163373ffffffffffffffffffffffffffffffffffffffff161461030e57337f00000000000000000000000000000000000000000000000000000000000000006040517f1cf993f4000000000000000000000000000000000000000000000000000000008152600401610305929190610e51565b60405180910390fd5b610318828261099a565b5050565b600080600860008573ffffffffffffffffffffffffffffffffffffffff1673ffffffffffffffffffffffffffffffffffffffff168152602001908152602001600020540361039f576040517f08c379a000000000000000000000000000000000000000000000000000000000815260040161039690610ed7565b60405180910390fd5b602a600860008573ffffffffffffffffffffffffffffffffffffffff1673ffffffffffffffffffffffffffffffffffffffff1681526020019081526020016000205403610421576040517f08c379a000000000000000000000000000000000000000000000000000000000815260040161041890610f43565b60405180910390fd5b34471015610464576040517f08c379a000000000000000000000000000000000000000000000000000000000815260040161045b90610faf565b60405180910390fd5b604051806080016040528060045481526020018381526020013481526020013373ffffffffffffffffffffffffffffffffffffffff1681525060066000600454815260200190815260200160002060008201518160000155602082015181600101556040820151816002015560608201518160030160006101000a81548173ffffffffffffffffffffffffffffffffffffffff021916908373ffffffffffffffffffffffffffffffffffffffff16021790555090505060016004600082825461052d9190610ffe565b925050819055506001905092915050565b60055481565b600160009054906101000a900473ffffffffffffffffffffffffffffffffffffffff1673ffffffffffffffffffffffffffffffffffffffff163373ffffffffffffffffffffffffffffffffffffffff16146105d4576040517f08c379a00000000000000000000000000000000000000000000000000000000081526004016105cb906110a0565b60405180910390fd5b600060055490505b6004548110156107b257600060018314801561060e575060016006600084815260200190815260200160002060010154145b8061063b575060008314801561063a575060006006600084815260200190815260200160002060010154145b5b156106e3576002600660008481526020019081526020016000206002015461066391906110c0565b90506006600083815260200190815260200160002060030160009054906101000a900473ffffffffffffffffffffffffffffffffffffffff1673ffffffffffffffffffffffffffffffffffffffff166108fc829081150290604051600060405180830381858888f193505050501580156106e1573d6000803e3d6000fd5b505b7f21358134633323ccf1de3942fefdcdaad27107bf148d87cb6e51ff9fc46ae7af6006600084815260200190815260200160002060000154600660008581526020019081526020016000206001015460066000868152602001908152602001600020600201546006600087815260200190815260200160002060030160009054906101000a900473ffffffffffffffffffffffffffffffffffffffff168588426040516107969796959493929190611179565b60405180910390a15080806107aa906111e8565b9150506105dc565b5060045460058190555050565b60045481565b60008060009054906101000a900473ffffffffffffffffffffffffffffffffffffffff1673ffffffffffffffffffffffffffffffffffffffff16635d3b1d30600254600060149054906101000a900467ffffffffffffffff16600360049054906101000a900461ffff16600360009054906101000a900463ffffffff16600360069054906101000a900463ffffffff166040518663ffffffff1660e01b81526004016108759594939291906112a8565b6020604051808303816000875af1158015610894573d6000803e3d6000fd5b505050506040513d601f19601f820116820180604052508101906108b89190611310565b9050816007600083815260200190815260200160002060006101000a81548173ffffffffffffffffffffffffffffffffffffffff021916908373ffffffffffffffffffffffffffffffffffffffff160217905550602a600860008473ffffffffffffffffffffffffffffffffffffffff1673ffffffffffffffffffffffffffffffffffffffff168152602001908152602001600020819055508173ffffffffffffffffffffffffffffffffffffffff16817f3e7fdeab84c01ce5308321caa0b460e1c4ec3c7099223d79634d9a71d99932e360405160405180910390a3919050565b600060016002836000815181106109b4576109b361133d565b5b60200260200101516109c6919061139b565b6109d09190610ffe565b905080600860006007600087815260200190815260200160002060009054906101000a900473ffffffffffffffffffffffffffffffffffffffff1673ffffffffffffffffffffffffffffffffffffffff1673ffffffffffffffffffffffffffffffffffffffff16815260200190815260200160002081905550610a5281610544565b80837f54d97c1f7e5abad75bd421455cd4dd296852a52e1ea721f2cdb66d06fa2082a960405160405180910390a3505050565b6000604051905090565b600080fd5b600080fd5b6000819050919050565b610aac81610a99565b8114610ab757600080fd5b50565b600081359050610ac981610aa3565b92915050565b600060208284031215610ae557610ae4610a8f565b5b6000610af384828501610aba565b91505092915050565b610b0581610a99565b82525050565b600073ffffffffffffffffffffffffffffffffffffffff82169050919050565b6000610b3682610b0b565b9050919050565b610b4681610b2b565b82525050565b6000608082019050610b616000830187610afc565b610b6e6020830186610afc565b610b7b6040830185610afc565b610b886060830184610b3d565b95945050505050565b600080fd5b6000601f19601f8301169050919050565b7f4e487b7100000000000000000000000000000000000000000000000000000000600052604160045260246000fd5b610bdf82610b96565b810181811067ffffffffffffffff82111715610bfe57610bfd610ba7565b5b80604052505050565b6000610c11610a85565b9050610c1d8282610bd6565b919050565b600067ffffffffffffffff821115610c3d57610c3c610ba7565b5b602082029050602081019050919050565b600080fd5b6000610c66610c6184610c22565b610c07565b90508083825260208201905060208402830185811115610c8957610c88610c4e565b5b835b81811015610cb25780610c9e8882610aba565b845260208401935050602081019050610c8b565b5050509392505050565b600082601f830112610cd157610cd0610b91565b5b8135610ce1848260208601610c53565b91505092915050565b60008060408385031215610d0157610d00610a8f565b5b6000610d0f85828601610aba565b925050602083013567ffffffffffffffff811115610d3057610d2f610a94565b5b610d3c85828601610cbc565b9150509250929050565b6000610d5182610b0b565b9050919050565b610d6181610d46565b8114610d6c57600080fd5b50565b600081359050610d7e81610d58565b92915050565b60008060408385031215610d9b57610d9a610a8f565b5b6000610da985828601610d6f565b9250506020610dba85828601610aba565b9150509250929050565b60008115159050919050565b610dd981610dc4565b82525050565b6000602082019050610df46000830184610dd0565b92915050565b6000602082019050610e0f6000830184610afc565b92915050565b600060208284031215610e2b57610e2a610a8f565b5b6000610e3984828501610d6f565b91505092915050565b610e4b81610d46565b82525050565b6000604082019050610e666000830185610e42565b610e736020830184610e42565b9392505050565b600082825260208201905092915050565b7f44696365206e6f7420726f6c6c65640000000000000000000000000000000000600082015250565b6000610ec1600f83610e7a565b9150610ecc82610e8b565b602082019050919050565b60006020820190508181036000830152610ef081610eb4565b9050919050565b7f526f6c6c20696e2070726f677265737300000000000000000000000000000000600082015250565b6000610f2d601083610e7a565b9150610f3882610ef7565b602082019050919050565b60006020820190508181036000830152610f5c81610f20565b9050919050565b7f4572726f722c20696e737566666963656e74207661756c742062616c616e6365600082015250565b6000610f99602083610e7a565b9150610fa482610f63565b602082019050919050565b60006020820190508181036000830152610fc881610f8c565b9050919050565b7f4e487b7100000000000000000000000000000000000000000000000000000000600052601160045260246000fd5b600061100982610a99565b915061101483610a99565b9250827fffffffffffffffffffffffffffffffffffffffffffffffffffffffffffffffff0382111561104957611048610fcf565b5b828201905092915050565b7f6f6e6c7920564652432063616e2063616c6c20746869732066756e6374696f6e600082015250565b600061108a602083610e7a565b915061109582611054565b602082019050919050565b600060208201905081810360008301526110b98161107d565b9050919050565b60006110cb82610a99565b91506110d683610a99565b9250817fffffffffffffffffffffffffffffffffffffffffffffffffffffffffffffffff048311821515161561110f5761110e610fcf565b5b828202905092915050565b6000819050919050565b600061113f61113a61113584610b0b565b61111a565b610b0b565b9050919050565b600061115182611124565b9050919050565b600061116382611146565b9050919050565b61117381611158565b82525050565b600060e08201905061118e600083018a610afc565b61119b6020830189610afc565b6111a86040830188610afc565b6111b5606083018761116a565b6111c26080830186610afc565b6111cf60a0830185610afc565b6111dc60c0830184610afc565b98975050505050505050565b60006111f382610a99565b91507fffffffffffffffffffffffffffffffffffffffffffffffffffffffffffffffff820361122557611224610fcf565b5b600182019050919050565b6000819050919050565b61124381611230565b82525050565b600067ffffffffffffffff82169050919050565b61126681611249565b82525050565b600061ffff82169050919050565b6112838161126c565b82525050565b600063ffffffff82169050919050565b6112a281611289565b82525050565b600060a0820190506112bd600083018861123a565b6112ca602083018761125d565b6112d7604083018661127a565b6112e46060830185611299565b6112f16080830184611299565b9695505050505050565b60008151905061130a81610aa3565b92915050565b60006020828403121561132657611325610a8f565b5b6000611334848285016112fb565b91505092915050565b7f4e487b7100000000000000000000000000000000000000000000000000000000600052603260045260246000fd5b7f4e487b7100000000000000000000000000000000000000000000000000000000600052601260045260246000fd5b60006113a682610a99565b91506113b183610a99565b9250826113c1576113c061136c565b5b82820690509291505056fea26469706673582212200828c3e1fc559311ebcb6f92bfa0b4be729e89d5f45bc11f0b540ecf7fd74c5564736f6c634300080d0033",
  "immutableReferences": {
    "10": [
      {
        "length": 32,
        "start": 606
      },
      {
        "length": 32,
        "start": 690
      }
    ]
  },
  "source": "// SPDX-License-Identifier: MIT\npragma solidity ^0.8.7;\n\nimport '@chainlink/contracts/src/v0.8/interfaces/VRFCoordinatorV2Interface.sol';\nimport '@chainlink/contracts/src/v0.8/VRFConsumerBaseV2.sol';\n\n/**\n * @notice A Chainlink VRF consumer which uses randomness to mimic the rolling\n * of a 20 sided dice\n * @dev This is only an example implementation and not necessarily suitable for mainnet.\n */\ncontract VRFD2 is VRFConsumerBaseV2 {\n    uint256 private constant ROLL_IN_PROGRESS = 42;\n\n    VRFCoordinatorV2Interface COORDINATOR;\n\n    // Your subscription ID.\n    uint64 s_subscriptionId;\n\n    // Rinkeby coordinator. For other networks,\n    // see https://docs.chain.link/docs/vrf-contracts/#configurations\n    address vrfCoordinator = 0x6168499c0cFfCaCD319c818142124B7A15E857ab;\n\n    // The gas lane to use, which specifies the maximum gas price to bump to.\n    // For a list of available gas lanes on each network,\n    // see https://docs.chain.link/docs/vrf-contracts/#configurations\n    bytes32 s_keyHash = 0xd89b2bf150e3b9e13446986e571fb9cab24b13cea0a43ea20a6049a85cc807cc;\n\n    // Depends on the number of requested values that you want sent to the\n    // fulfillRandomWords() function. Storing each word costs about 20,000 gas,\n    // so 40,000 is a safe default for this example contract. Test and adjust\n    // this limit based on the network that you select, the size of the request,\n    // and the processing of the callback request in the fulfillRandomWords()\n    // function.\n    uint32 callbackGasLimit = 40000;\n\n    // The default is 3, but you can set this higher.\n    uint16 requestConfirmations = 3;\n\n    // For this example, retrieve 1 random value in one request.\n    // Cannot exceed VRFCoordinatorV2.MAX_NUM_WORDS.\n    uint32 numWords = 1;\n    address s_owner;\n\n    // Game info\n    uint256 public gameId;\n    uint256 public lastGameId;\n \n\n    struct Game{\n        uint256 id;\n        uint256 bet;        \n        uint256 amount;\n        address payable player;\n    }\n\n    // map games\n    mapping(uint256 => Game) public games;\n    // map rollers to requestIds\n    mapping(uint256 => address) private s_rollers;\n    // map vrf results to rollers\n    mapping(address => uint256) private s_results;\n\n    event DiceRolled(uint256 indexed requestId, address indexed roller);\n    event DiceLanded(uint256 indexed requestId, uint256 indexed result);\n    event Received(address indexed sender, uint indexed value);\n    event Result(uint256 id, uint256 bet, uint256 amount, address player, uint256 winAmount, uint256 randomResult, uint256 time);\n\n     /* Allows this contract to receive payments */\n    receive() external payable {\n        emit Received(msg.sender, msg.value);\n    }\n\n    /**\n     * @notice Constructor inherits VRFConsumerBaseV2\n     *\n     * @dev NETWORK: RINKEBY\n     *\n     * @param subscriptionId subscription id that this consumer contract can use\n     */\n    constructor(uint64 subscriptionId) VRFConsumerBaseV2(vrfCoordinator) {\n        COORDINATOR = VRFCoordinatorV2Interface(vrfCoordinator);\n        s_owner = msg.sender;\n        s_subscriptionId = subscriptionId;\n    }\n\n    /**\n     * @notice Requests randomness\n     * @dev Warning: if the VRF response is delayed, avoid calling requestRandomness repeatedly\n     * as that would give miners/VRF operators latitude about which VRF response arrives first.\n     * @dev You must review your implementation details with extreme care.\n     *\n     * @param roller address of the roller\n     */\n    function rollDice(address roller) public returns (uint256 requestId) {\n        // require(s_results[roller] == 0, 'Already rolled');\n        // Will revert if subscription is not set and funded.\n        requestId = COORDINATOR.requestRandomWords(\n            s_keyHash,\n            s_subscriptionId,\n            requestConfirmations,\n            callbackGasLimit,\n            numWords\n        );\n\n        s_rollers[requestId] = roller;\n        s_results[roller] = ROLL_IN_PROGRESS;\n        emit DiceRolled(requestId, roller);\n    }\n\n    /**\n     * @notice Callback function used by VRF Coordinator to return the random number to this contract.\n     *\n     * @dev Some action on the contract state should be taken here, like storing the result.\n     * @dev WARNING: take care to avoid having multiple VRF requests in flight if their order of arrival would result\n     * in contract states with different outcomes. Otherwise miners or the VRF operator would could take advantage\n     * by controlling the order.\n     * @dev The VRF Coordinator will only send this function verified responses, and the parent VRFConsumerBaseV2\n     * contract ensures that this method only receives randomness from the designated VRFCoordinator.\n     *\n     * @param requestId uint256\n     * @param randomWords  uint256[] The random result returned by the oracle.\n     */\n    function fulfillRandomWords(uint256 requestId, uint256[] memory randomWords) internal override {\n        uint256 d2Value = (randomWords[0] % 2) + 1;\n        s_results[s_rollers[requestId]] = d2Value;\n        verdict(d2Value);\n        emit DiceLanded(requestId, d2Value);\n    }\n\n    /**\n     * @notice Get the house assigned to the player once the address has rolled\n     * @param player address\n     * @return house as a string\n     */\n    function game(address player, uint bet) public payable returns (bool) {\n        require(s_results[player] != 0, 'Dice not rolled');\n        require(s_results[player] != ROLL_IN_PROGRESS, 'Roll in progress');\n\n        //vault balance must be at least equal to msg.value\n        require(address(this).balance >= msg.value, \"Error, insufficent vault balance\");\n\n        //each bet has unique id\n        games[gameId] = Game(gameId, bet, msg.value, payable(msg.sender));\n        \n        //increase gameId for the next bet\n        gameId += 1;      \n        \n        return true;\n    }\n\n    /**\n     * Send rewards to the winners.\n    */\n    function verdict(uint256 random) public payable onlyVFRC {\n        //check bets from latest betting round, one by one\n        for(uint256 i = lastGameId; i < gameId; i++){\n        //reset winAmount for current user\n        uint256 winAmount = 0;\n        \n        //if user wins, then receives 2x of their betting amount\n        if((random == 1 && games[i].bet==1) || (random == 0 && games[i].bet==0)){\n            winAmount = games[i].amount*2;\n            games[i].player.transfer(winAmount);\n        }\n        emit Result(games[i].id, games[i].bet, games[i].amount, games[i].player, winAmount, random, block.timestamp);\n        }\n        //save current gameId to lastGameId for the next betting round\n        lastGameId = gameId;\n    }\n    \n    modifier onlyOwner() {\n        require(msg.sender == s_owner);\n        _;\n    }\n\n    modifier onlyVFRC() {\n        require(msg.sender == vrfCoordinator, \"only VFRC can call this function\");\n        _;\n    } \n}\n",
  "sourcePath": "/Users/danielancuta/Development/blockchain/chainlink-betting-game/src/contracts/ChainlinkBettingGame.sol",
  "compiler": {
    "name": "solc",
    "version": "0.8.13+commit.abaa5c0e.Emscripten.clang"
  },
  "schemaVersion": "3.4.7",
  "updatedAt": "2022-05-06T11:28:52.174Z",
  "devdoc": {
    "details": "This is only an example implementation and not necessarily suitable for mainnet.",
    "kind": "dev",
    "methods": {
      "constructor": {
        "details": "NETWORK: RINKEBY",
        "params": {
          "subscriptionId": "subscription id that this consumer contract can use"
        }
      },
      "game(address,uint256)": {
        "params": {
          "player": "address"
        },
        "returns": {
          "_0": "house as a string"
        }
      },
      "rollDice(address)": {
        "details": "Warning: if the VRF response is delayed, avoid calling requestRandomness repeatedly as that would give miners/VRF operators latitude about which VRF response arrives first.You must review your implementation details with extreme care.",
        "params": {
          "roller": "address of the roller"
        }
      }
    },
    "version": 1
  },
  "userdoc": {
    "kind": "user",
    "methods": {
      "constructor": {
        "notice": "Constructor inherits VRFConsumerBaseV2"
      },
      "game(address,uint256)": {
        "notice": "Get the house assigned to the player once the address has rolled"
      },
      "rollDice(address)": {
        "notice": "Requests randomness"
      },
      "verdict(uint256)": {
        "notice": "Send rewards to the winners."
      }
    },
    "notice": "A Chainlink VRF consumer which uses randomness to mimic the rolling of a 20 sided dice",
    "version": 1
  }
}